{
  "_format": "hh-sol-artifact-1",
  "contractName": "SMT",
  "sourceName": "contracts/SMT.sol",
  "abi": [
    {
      "inputs": [
        {
          "internalType": "string",
          "name": "name",
          "type": "string"
        },
        {
          "internalType": "string",
          "name": "symbol",
          "type": "string"
        },
        {
          "internalType": "uint256",
          "name": "initialExchangeRate",
          "type": "uint256"
        }
      ],
      "stateMutability": "nonpayable",
      "type": "constructor"
    },
    {
      "anonymous": false,
      "inputs": [
        {
          "indexed": true,
          "internalType": "address",
          "name": "owner",
          "type": "address"
        },
        {
          "indexed": true,
          "internalType": "address",
          "name": "spender",
          "type": "address"
        },
        {
          "indexed": false,
          "internalType": "uint256",
          "name": "value",
          "type": "uint256"
        }
      ],
      "name": "Approval",
      "type": "event"
    },
    {
      "anonymous": false,
      "inputs": [
        {
          "indexed": true,
          "internalType": "address",
          "name": "previousOwner",
          "type": "address"
        },
        {
          "indexed": true,
          "internalType": "address",
          "name": "newOwner",
          "type": "address"
        }
      ],
      "name": "OwnershipTransferred",
      "type": "event"
    },
    {
      "anonymous": false,
      "inputs": [
        {
          "indexed": false,
          "internalType": "address",
          "name": "account",
          "type": "address"
        }
      ],
      "name": "Paused",
      "type": "event"
    },
    {
      "anonymous": false,
      "inputs": [
        {
          "indexed": true,
          "internalType": "address",
          "name": "from",
          "type": "address"
        },
        {
          "indexed": true,
          "internalType": "address",
          "name": "to",
          "type": "address"
        },
        {
          "indexed": false,
          "internalType": "uint256",
          "name": "value",
          "type": "uint256"
        }
      ],
      "name": "Transfer",
      "type": "event"
    },
    {
      "anonymous": false,
      "inputs": [
        {
          "indexed": false,
          "internalType": "address",
          "name": "account",
          "type": "address"
        }
      ],
      "name": "Unpaused",
      "type": "event"
    },
    {
      "inputs": [],
      "name": "_initialExchangeRate",
      "outputs": [
        {
          "internalType": "uint256",
          "name": "",
          "type": "uint256"
        }
      ],
      "stateMutability": "view",
      "type": "function"
    },
    {
      "inputs": [
        {
          "internalType": "address",
          "name": "owner",
          "type": "address"
        },
        {
          "internalType": "address",
          "name": "spender",
          "type": "address"
        }
      ],
      "name": "allowance",
      "outputs": [
        {
          "internalType": "uint256",
          "name": "",
          "type": "uint256"
        }
      ],
      "stateMutability": "view",
      "type": "function"
    },
    {
      "inputs": [
        {
          "internalType": "address",
          "name": "spender",
          "type": "address"
        },
        {
          "internalType": "uint256",
          "name": "amount",
          "type": "uint256"
        }
      ],
      "name": "approve",
      "outputs": [
        {
          "internalType": "bool",
          "name": "",
          "type": "bool"
        }
      ],
      "stateMutability": "nonpayable",
      "type": "function"
    },
    {
      "inputs": [
        {
          "internalType": "address",
          "name": "account",
          "type": "address"
        }
      ],
      "name": "balanceOf",
      "outputs": [
        {
          "internalType": "uint256",
          "name": "",
          "type": "uint256"
        }
      ],
      "stateMutability": "view",
      "type": "function"
    },
    {
      "inputs": [],
      "name": "decimals",
      "outputs": [
        {
          "internalType": "uint8",
          "name": "",
          "type": "uint8"
        }
      ],
      "stateMutability": "view",
      "type": "function"
    },
    {
      "inputs": [
        {
          "internalType": "address",
          "name": "spender",
          "type": "address"
        },
        {
          "internalType": "uint256",
          "name": "subtractedValue",
          "type": "uint256"
        }
      ],
      "name": "decreaseAllowance",
      "outputs": [
        {
          "internalType": "bool",
          "name": "",
          "type": "bool"
        }
      ],
      "stateMutability": "nonpayable",
      "type": "function"
    },
    {
      "inputs": [
        {
          "internalType": "address",
          "name": "spender",
          "type": "address"
        },
        {
          "internalType": "uint256",
          "name": "addedValue",
          "type": "uint256"
        }
      ],
      "name": "increaseAllowance",
      "outputs": [
        {
          "internalType": "bool",
          "name": "",
          "type": "bool"
        }
      ],
      "stateMutability": "nonpayable",
      "type": "function"
    },
    {
      "inputs": [
        {
          "internalType": "address",
          "name": "to",
          "type": "address"
        },
        {
          "internalType": "uint256",
          "name": "amount",
          "type": "uint256"
        }
      ],
      "name": "mint",
      "outputs": [],
      "stateMutability": "nonpayable",
      "type": "function"
    },
    {
      "inputs": [],
      "name": "name",
      "outputs": [
        {
          "internalType": "string",
          "name": "",
          "type": "string"
        }
      ],
      "stateMutability": "view",
      "type": "function"
    },
    {
      "inputs": [],
      "name": "owner",
      "outputs": [
        {
          "internalType": "address",
          "name": "",
          "type": "address"
        }
      ],
      "stateMutability": "view",
      "type": "function"
    },
    {
      "inputs": [],
      "name": "pause",
      "outputs": [],
      "stateMutability": "nonpayable",
      "type": "function"
    },
    {
      "inputs": [],
      "name": "paused",
      "outputs": [
        {
          "internalType": "bool",
          "name": "",
          "type": "bool"
        }
      ],
      "stateMutability": "view",
      "type": "function"
    },
    {
      "inputs": [],
      "name": "renounceOwnership",
      "outputs": [],
      "stateMutability": "nonpayable",
      "type": "function"
    },
    {
      "inputs": [],
      "name": "symbol",
      "outputs": [
        {
          "internalType": "string",
          "name": "",
          "type": "string"
        }
      ],
      "stateMutability": "view",
      "type": "function"
    },
    {
      "inputs": [],
      "name": "totalBalance",
      "outputs": [
        {
          "internalType": "uint256",
          "name": "bal",
          "type": "uint256"
        }
      ],
      "stateMutability": "view",
      "type": "function"
    },
    {
      "inputs": [],
      "name": "totalSupply",
      "outputs": [
        {
          "internalType": "uint256",
          "name": "",
          "type": "uint256"
        }
      ],
      "stateMutability": "view",
      "type": "function"
    },
    {
      "inputs": [
        {
          "internalType": "address",
          "name": "recipient",
          "type": "address"
        },
        {
          "internalType": "uint256",
          "name": "amount",
          "type": "uint256"
        }
      ],
      "name": "transfer",
      "outputs": [
        {
          "internalType": "bool",
          "name": "",
          "type": "bool"
        }
      ],
      "stateMutability": "nonpayable",
      "type": "function"
    },
    {
      "inputs": [
        {
          "internalType": "address",
          "name": "sender",
          "type": "address"
        },
        {
          "internalType": "address",
          "name": "recipient",
          "type": "address"
        },
        {
          "internalType": "uint256",
          "name": "amount",
          "type": "uint256"
        }
      ],
      "name": "transferFrom",
      "outputs": [
        {
          "internalType": "bool",
          "name": "",
          "type": "bool"
        }
      ],
      "stateMutability": "nonpayable",
      "type": "function"
    },
    {
      "inputs": [
        {
          "internalType": "address",
          "name": "newOwner",
          "type": "address"
        }
      ],
      "name": "transferOwnership",
      "outputs": [],
      "stateMutability": "nonpayable",
      "type": "function"
    },
    {
      "inputs": [],
      "name": "unpause",
      "outputs": [],
      "stateMutability": "nonpayable",
      "type": "function"
    },
    {
      "inputs": [],
      "name": "withdraw",
      "outputs": [],
      "stateMutability": "nonpayable",
      "type": "function"
    },
    {
      "stateMutability": "payable",
      "type": "receive"
    }
  ],
  "bytecode": "0x60806040523480156200001157600080fd5b5060405162002555380380620025558339818101604052810190620000379190620002bf565b828281600390805190602001906200005192919062000186565b5080600490805190602001906200006a92919062000186565b5050506000600560006101000a81548160ff021916908315150217905550620000a86200009c620000b860201b60201c565b620000c060201b60201c565b80600681905550505050620004db565b600033905090565b6000600560019054906101000a900473ffffffffffffffffffffffffffffffffffffffff16905081600560016101000a81548173ffffffffffffffffffffffffffffffffffffffff021916908373ffffffffffffffffffffffffffffffffffffffff1602179055508173ffffffffffffffffffffffffffffffffffffffff168173ffffffffffffffffffffffffffffffffffffffff167f8be0079c531659141344cd1fd0a4f28419497f9722a3daafe3b4186f6b6457e060405160405180910390a35050565b8280546200019490620003e6565b90600052602060002090601f016020900481019282620001b8576000855562000204565b82601f10620001d357805160ff191683800117855562000204565b8280016001018555821562000204579182015b8281111562000203578251825591602001919060010190620001e6565b5b50905062000213919062000217565b5090565b5b808211156200023257600081600090555060010162000218565b5090565b60006200024d620002478462000370565b62000347565b9050828152602081018484840111156200026657600080fd5b62000273848285620003b0565b509392505050565b600082601f8301126200028d57600080fd5b81516200029f84826020860162000236565b91505092915050565b600081519050620002b981620004c1565b92915050565b600080600060608486031215620002d557600080fd5b600084015167ffffffffffffffff811115620002f057600080fd5b620002fe868287016200027b565b935050602084015167ffffffffffffffff8111156200031c57600080fd5b6200032a868287016200027b565b92505060406200033d86828701620002a8565b9150509250925092565b60006200035362000366565b90506200036182826200041c565b919050565b6000604051905090565b600067ffffffffffffffff8211156200038e576200038d62000481565b5b6200039982620004b0565b9050602081019050919050565b6000819050919050565b60005b83811015620003d0578082015181840152602081019050620003b3565b83811115620003e0576000848401525b50505050565b60006002820490506001821680620003ff57607f821691505b6020821081141562000416576200041562000452565b5b50919050565b6200042782620004b0565b810181811067ffffffffffffffff8211171562000449576200044862000481565b5b80604052505050565b7f4e487b7100000000000000000000000000000000000000000000000000000000600052602260045260246000fd5b7f4e487b7100000000000000000000000000000000000000000000000000000000600052604160045260246000fd5b6000601f19601f8301169050919050565b620004cc81620003a6565b8114620004d857600080fd5b50565b61206a80620004eb6000396000f3fe60806040526004361061012e5760003560e01c80635c975abb116100ab57806395d89b411161006f57806395d89b41146103b5578063a457c2d7146103e0578063a9059cbb1461041d578063ad7a672f1461045a578063dd62ed3e14610485578063f2fde38b146104c257610135565b80635c975abb146102f457806370a082311461031f578063715018a61461035c5780638456cb59146103735780638da5cb5b1461038a57610135565b806339509351116100f257806339509351146102355780633ccfd60b146102725780633f4ba83a1461028957806340c10f19146102a057806353d31b68146102c957610135565b806306fdde031461013a578063095ea7b31461016557806318160ddd146101a257806323b872dd146101cd578063313ce5671461020a57610135565b3661013557005b600080fd5b34801561014657600080fd5b5061014f6104eb565b60405161015c9190611977565b60405180910390f35b34801561017157600080fd5b5061018c600480360381019061018791906116ec565b61057d565b604051610199919061195c565b60405180910390f35b3480156101ae57600080fd5b506101b761059b565b6040516101c49190611b19565b60405180910390f35b3480156101d957600080fd5b506101f460048036038101906101ef919061169d565b6105a5565b604051610201919061195c565b60405180910390f35b34801561021657600080fd5b5061021f61069d565b60405161022c9190611b34565b60405180910390f35b34801561024157600080fd5b5061025c600480360381019061025791906116ec565b6106a6565b604051610269919061195c565b60405180910390f35b34801561027e57600080fd5b50610287610752565b005b34801561029557600080fd5b5061029e61081e565b005b3480156102ac57600080fd5b506102c760048036038101906102c291906116ec565b6108a4565b005b3480156102d557600080fd5b506102de61092e565b6040516102eb9190611b19565b60405180910390f35b34801561030057600080fd5b50610309610934565b604051610316919061195c565b60405180910390f35b34801561032b57600080fd5b5061034660048036038101906103419190611638565b61094b565b6040516103539190611b19565b60405180910390f35b34801561036857600080fd5b50610371610993565b005b34801561037f57600080fd5b50610388610a1b565b005b34801561039657600080fd5b5061039f610aa1565b6040516103ac9190611941565b60405180910390f35b3480156103c157600080fd5b506103ca610acb565b6040516103d79190611977565b60405180910390f35b3480156103ec57600080fd5b50610407600480360381019061040291906116ec565b610b5d565b604051610414919061195c565b60405180910390f35b34801561042957600080fd5b50610444600480360381019061043f91906116ec565b610c48565b604051610451919061195c565b60405180910390f35b34801561046657600080fd5b5061046f610c66565b60405161047c9190611b19565b60405180910390f35b34801561049157600080fd5b506104ac60048036038101906104a79190611661565b610c6e565b6040516104b99190611b19565b60405180910390f35b3480156104ce57600080fd5b506104e960048036038101906104e49190611638565b610cf5565b005b6060600380546104fa90611c49565b80601f016020809104026020016040519081016040528092919081815260200182805461052690611c49565b80156105735780601f1061054857610100808354040283529160200191610573565b820191906000526020600020905b81548152906001019060200180831161055657829003601f168201915b5050505050905090565b600061059161058a610ded565b8484610df5565b6001905092915050565b6000600254905090565b60006105b2848484610fc0565b6000600160008673ffffffffffffffffffffffffffffffffffffffff1673ffffffffffffffffffffffffffffffffffffffff16815260200190815260200160002060006105fd610ded565b73ffffffffffffffffffffffffffffffffffffffff1673ffffffffffffffffffffffffffffffffffffffff1681526020019081526020016000205490508281101561067d576040517f08c379a000000000000000000000000000000000000000000000000000000000815260040161067490611a59565b60405180910390fd5b61069185610689610ded565b858403610df5565b60019150509392505050565b60006012905090565b60006107486106b3610ded565b8484600160006106c1610ded565b73ffffffffffffffffffffffffffffffffffffffff1673ffffffffffffffffffffffffffffffffffffffff16815260200190815260200160002060008873ffffffffffffffffffffffffffffffffffffffff1673ffffffffffffffffffffffffffffffffffffffff168152602001908152602001600020546107439190611b6b565b610df5565b6001905092915050565b61075a610ded565b73ffffffffffffffffffffffffffffffffffffffff16610778610aa1565b73ffffffffffffffffffffffffffffffffffffffff16146107ce576040517f08c379a00000000000000000000000000000000000000000000000000000000081526004016107c590611a79565b60405180910390fd5b6107d6610aa1565b73ffffffffffffffffffffffffffffffffffffffff166108fc479081150290604051600060405180830381858888f1935050505015801561081b573d6000803e3d6000fd5b50565b610826610ded565b73ffffffffffffffffffffffffffffffffffffffff16610844610aa1565b73ffffffffffffffffffffffffffffffffffffffff161461089a576040517f08c379a000000000000000000000000000000000000000000000000000000000815260040161089190611a79565b60405180910390fd5b6108a2611241565b565b6108ac610ded565b73ffffffffffffffffffffffffffffffffffffffff166108ca610aa1565b73ffffffffffffffffffffffffffffffffffffffff1614610920576040517f08c379a000000000000000000000000000000000000000000000000000000000815260040161091790611a79565b60405180910390fd5b61092a82826112e3565b5050565b60065481565b6000600560009054906101000a900460ff16905090565b60008060008373ffffffffffffffffffffffffffffffffffffffff1673ffffffffffffffffffffffffffffffffffffffff168152602001908152602001600020549050919050565b61099b610ded565b73ffffffffffffffffffffffffffffffffffffffff166109b9610aa1565b73ffffffffffffffffffffffffffffffffffffffff1614610a0f576040517f08c379a0000000000000000000000000000000000000000000000000000000008152600401610a0690611a79565b60405180910390fd5b610a196000611443565b565b610a23610ded565b73ffffffffffffffffffffffffffffffffffffffff16610a41610aa1565b73ffffffffffffffffffffffffffffffffffffffff1614610a97576040517f08c379a0000000000000000000000000000000000000000000000000000000008152600401610a8e90611a79565b60405180910390fd5b610a9f611509565b565b6000600560019054906101000a900473ffffffffffffffffffffffffffffffffffffffff16905090565b606060048054610ada90611c49565b80601f0160208091040260200160405190810160405280929190818152602001828054610b0690611c49565b8015610b535780601f10610b2857610100808354040283529160200191610b53565b820191906000526020600020905b815481529060010190602001808311610b3657829003601f168201915b5050505050905090565b60008060016000610b6c610ded565b73ffffffffffffffffffffffffffffffffffffffff1673ffffffffffffffffffffffffffffffffffffffff16815260200190815260200160002060008573ffffffffffffffffffffffffffffffffffffffff1673ffffffffffffffffffffffffffffffffffffffff16815260200190815260200160002054905082811015610c29576040517f08c379a0000000000000000000000000000000000000000000000000000000008152600401610c2090611ad9565b60405180910390fd5b610c3d610c34610ded565b85858403610df5565b600191505092915050565b6000610c5c610c55610ded565b8484610fc0565b6001905092915050565b600047905090565b6000600160008473ffffffffffffffffffffffffffffffffffffffff1673ffffffffffffffffffffffffffffffffffffffff16815260200190815260200160002060008373ffffffffffffffffffffffffffffffffffffffff1673ffffffffffffffffffffffffffffffffffffffff16815260200190815260200160002054905092915050565b610cfd610ded565b73ffffffffffffffffffffffffffffffffffffffff16610d1b610aa1565b73ffffffffffffffffffffffffffffffffffffffff1614610d71576040517f08c379a0000000000000000000000000000000000000000000000000000000008152600401610d6890611a79565b60405180910390fd5b600073ffffffffffffffffffffffffffffffffffffffff168173ffffffffffffffffffffffffffffffffffffffff161415610de1576040517f08c379a0000000000000000000000000000000000000000000000000000000008152600401610dd8906119d9565b60405180910390fd5b610dea81611443565b50565b600033905090565b600073ffffffffffffffffffffffffffffffffffffffff168373ffffffffffffffffffffffffffffffffffffffff161415610e65576040517f08c379a0000000000000000000000000000000000000000000000000000000008152600401610e5c90611ab9565b60405180910390fd5b600073ffffffffffffffffffffffffffffffffffffffff168273ffffffffffffffffffffffffffffffffffffffff161415610ed5576040517f08c379a0000000000000000000000000000000000000000000000000000000008152600401610ecc906119f9565b60405180910390fd5b80600160008573ffffffffffffffffffffffffffffffffffffffff1673ffffffffffffffffffffffffffffffffffffffff16815260200190815260200160002060008473ffffffffffffffffffffffffffffffffffffffff1673ffffffffffffffffffffffffffffffffffffffff168152602001908152602001600020819055508173ffffffffffffffffffffffffffffffffffffffff168373ffffffffffffffffffffffffffffffffffffffff167f8c5be1e5ebec7d5bd14f71427d1e84f3dd0314c0f7b2291e5b200ac8c7c3b92583604051610fb39190611b19565b60405180910390a3505050565b600073ffffffffffffffffffffffffffffffffffffffff168373ffffffffffffffffffffffffffffffffffffffff161415611030576040517f08c379a000000000000000000000000000000000000000000000000000000000815260040161102790611a99565b60405180910390fd5b600073ffffffffffffffffffffffffffffffffffffffff168273ffffffffffffffffffffffffffffffffffffffff1614156110a0576040517f08c379a000000000000000000000000000000000000000000000000000000000815260040161109790611999565b60405180910390fd5b6110ab8383836115ac565b60008060008573ffffffffffffffffffffffffffffffffffffffff1673ffffffffffffffffffffffffffffffffffffffff16815260200190815260200160002054905081811015611131576040517f08c379a000000000000000000000000000000000000000000000000000000000815260040161112890611a19565b60405180910390fd5b8181036000808673ffffffffffffffffffffffffffffffffffffffff1673ffffffffffffffffffffffffffffffffffffffff16815260200190815260200160002081905550816000808573ffffffffffffffffffffffffffffffffffffffff1673ffffffffffffffffffffffffffffffffffffffff16815260200190815260200160002060008282546111c49190611b6b565b925050819055508273ffffffffffffffffffffffffffffffffffffffff168473ffffffffffffffffffffffffffffffffffffffff167fddf252ad1be2c89b69c2b068fc378daa952ba7f163c4a11628f55a4df523b3ef846040516112289190611b19565b60405180910390a361123b848484611604565b50505050565b611249610934565b611288576040517f08c379a000000000000000000000000000000000000000000000000000000000815260040161127f906119b9565b60405180910390fd5b6000600560006101000a81548160ff0219169083151502179055507f5db9ee0a495bf2e6ff9c91a7834c1ba4fdd244a5e8aa4e537bd38aeae4b073aa6112cc610ded565b6040516112d99190611941565b60405180910390a1565b600073ffffffffffffffffffffffffffffffffffffffff168273ffffffffffffffffffffffffffffffffffffffff161415611353576040517f08c379a000000000000000000000000000000000000000000000000000000000815260040161134a90611af9565b60405180910390fd5b61135f600083836115ac565b80600260008282546113719190611b6b565b92505081905550806000808473ffffffffffffffffffffffffffffffffffffffff1673ffffffffffffffffffffffffffffffffffffffff16815260200190815260200160002060008282546113c69190611b6b565b925050819055508173ffffffffffffffffffffffffffffffffffffffff16600073ffffffffffffffffffffffffffffffffffffffff167fddf252ad1be2c89b69c2b068fc378daa952ba7f163c4a11628f55a4df523b3ef8360405161142b9190611b19565b60405180910390a361143f60008383611604565b5050565b6000600560019054906101000a900473ffffffffffffffffffffffffffffffffffffffff16905081600560016101000a81548173ffffffffffffffffffffffffffffffffffffffff021916908373ffffffffffffffffffffffffffffffffffffffff1602179055508173ffffffffffffffffffffffffffffffffffffffff168173ffffffffffffffffffffffffffffffffffffffff167f8be0079c531659141344cd1fd0a4f28419497f9722a3daafe3b4186f6b6457e060405160405180910390a35050565b611511610934565b15611551576040517f08c379a000000000000000000000000000000000000000000000000000000000815260040161154890611a39565b60405180910390fd5b6001600560006101000a81548160ff0219169083151502179055507f62e78cea01bee320cd4e420270b5ea74000d11b0c9f74754ebdbfc544b05a258611595610ded565b6040516115a29190611941565b60405180910390a1565b6115b4610934565b156115f4576040517f08c379a00000000000000000000000000000000000000000000000000000000081526004016115eb90611a39565b60405180910390fd5b6115ff838383611609565b505050565b505050565b505050565b60008135905061161d81612006565b92915050565b6000813590506116328161201d565b92915050565b60006020828403121561164a57600080fd5b60006116588482850161160e565b91505092915050565b6000806040838503121561167457600080fd5b60006116828582860161160e565b92505060206116938582860161160e565b9150509250929050565b6000806000606084860312156116b257600080fd5b60006116c08682870161160e565b93505060206116d18682870161160e565b92505060406116e286828701611623565b9150509250925092565b600080604083850312156116ff57600080fd5b600061170d8582860161160e565b925050602061171e85828601611623565b9150509250929050565b61173181611bc1565b82525050565b61174081611bd3565b82525050565b600061175182611b4f565b61175b8185611b5a565b935061176b818560208601611c16565b61177481611cd9565b840191505092915050565b600061178c602383611b5a565b915061179782611cea565b604082019050919050565b60006117af601483611b5a565b91506117ba82611d39565b602082019050919050565b60006117d2602683611b5a565b91506117dd82611d62565b604082019050919050565b60006117f5602283611b5a565b915061180082611db1565b604082019050919050565b6000611818602683611b5a565b915061182382611e00565b604082019050919050565b600061183b601083611b5a565b915061184682611e4f565b602082019050919050565b600061185e602883611b5a565b915061186982611e78565b604082019050919050565b6000611881602083611b5a565b915061188c82611ec7565b602082019050919050565b60006118a4602583611b5a565b91506118af82611ef0565b604082019050919050565b60006118c7602483611b5a565b91506118d282611f3f565b604082019050919050565b60006118ea602583611b5a565b91506118f582611f8e565b604082019050919050565b600061190d601f83611b5a565b915061191882611fdd565b602082019050919050565b61192c81611bff565b82525050565b61193b81611c09565b82525050565b60006020820190506119566000830184611728565b92915050565b60006020820190506119716000830184611737565b92915050565b600060208201905081810360008301526119918184611746565b905092915050565b600060208201905081810360008301526119b28161177f565b9050919050565b600060208201905081810360008301526119d2816117a2565b9050919050565b600060208201905081810360008301526119f2816117c5565b9050919050565b60006020820190508181036000830152611a12816117e8565b9050919050565b60006020820190508181036000830152611a328161180b565b9050919050565b60006020820190508181036000830152611a528161182e565b9050919050565b60006020820190508181036000830152611a7281611851565b9050919050565b60006020820190508181036000830152611a9281611874565b9050919050565b60006020820190508181036000830152611ab281611897565b9050919050565b60006020820190508181036000830152611ad2816118ba565b9050919050565b60006020820190508181036000830152611af2816118dd565b9050919050565b60006020820190508181036000830152611b1281611900565b9050919050565b6000602082019050611b2e6000830184611923565b92915050565b6000602082019050611b496000830184611932565b92915050565b600081519050919050565b600082825260208201905092915050565b6000611b7682611bff565b9150611b8183611bff565b9250827fffffffffffffffffffffffffffffffffffffffffffffffffffffffffffffffff03821115611bb657611bb5611c7b565b5b828201905092915050565b6000611bcc82611bdf565b9050919050565b60008115159050919050565b600073ffffffffffffffffffffffffffffffffffffffff82169050919050565b6000819050919050565b600060ff82169050919050565b60005b83811015611c34578082015181840152602081019050611c19565b83811115611c43576000848401525b50505050565b60006002820490506001821680611c6157607f821691505b60208210811415611c7557611c74611caa565b5b50919050565b7f4e487b7100000000000000000000000000000000000000000000000000000000600052601160045260246000fd5b7f4e487b7100000000000000000000000000000000000000000000000000000000600052602260045260246000fd5b6000601f19601f8301169050919050565b7f45524332303a207472616e7366657220746f20746865207a65726f206164647260008201527f6573730000000000000000000000000000000000000000000000000000000000602082015250565b7f5061757361626c653a206e6f7420706175736564000000000000000000000000600082015250565b7f4f776e61626c653a206e6577206f776e657220697320746865207a65726f206160008201527f6464726573730000000000000000000000000000000000000000000000000000602082015250565b7f45524332303a20617070726f766520746f20746865207a65726f20616464726560008201527f7373000000000000000000000000000000000000000000000000000000000000602082015250565b7f45524332303a207472616e7366657220616d6f756e742065786365656473206260008201527f616c616e63650000000000000000000000000000000000000000000000000000602082015250565b7f5061757361626c653a2070617573656400000000000000000000000000000000600082015250565b7f45524332303a207472616e7366657220616d6f756e742065786365656473206160008201527f6c6c6f77616e6365000000000000000000000000000000000000000000000000602082015250565b7f4f776e61626c653a2063616c6c6572206973206e6f7420746865206f776e6572600082015250565b7f45524332303a207472616e736665722066726f6d20746865207a65726f20616460008201527f6472657373000000000000000000000000000000000000000000000000000000602082015250565b7f45524332303a20617070726f76652066726f6d20746865207a65726f2061646460008201527f7265737300000000000000000000000000000000000000000000000000000000602082015250565b7f45524332303a2064656372656173656420616c6c6f77616e63652062656c6f7760008201527f207a65726f000000000000000000000000000000000000000000000000000000602082015250565b7f45524332303a206d696e7420746f20746865207a65726f206164647265737300600082015250565b61200f81611bc1565b811461201a57600080fd5b50565b61202681611bff565b811461203157600080fd5b5056fea26469706673582212207b04874110f55bfe2c15f721b3b50d8ae6664b07848d9e3dc69e496aae3f1f2f64736f6c63430008040033",
  "linkReferences": {},
  "deployedLinkReferences": {}
}