{
  "_format": "hh-sol-artifact-1",
  "contractName": "SMT",
  "sourceName": "contracts/SMT.sol",
  "abi": [
    {
      "inputs": [
        {
          "internalType": "string",
          "name": "name",
          "type": "string"
        },
        {
          "internalType": "string",
          "name": "symbol",
          "type": "string"
        },
        {
          "internalType": "uint256",
          "name": "initialExchangeRate",
          "type": "uint256"
        }
      ],
      "stateMutability": "nonpayable",
      "type": "constructor"
    },
    {
      "anonymous": false,
      "inputs": [
        {
          "indexed": true,
          "internalType": "address",
          "name": "owner",
          "type": "address"
        },
        {
          "indexed": true,
          "internalType": "address",
          "name": "spender",
          "type": "address"
        },
        {
          "indexed": false,
          "internalType": "uint256",
          "name": "value",
          "type": "uint256"
        }
      ],
      "name": "Approval",
      "type": "event"
    },
    {
      "anonymous": false,
      "inputs": [
        {
          "indexed": true,
          "internalType": "address",
          "name": "previousOwner",
          "type": "address"
        },
        {
          "indexed": true,
          "internalType": "address",
          "name": "newOwner",
          "type": "address"
        }
      ],
      "name": "OwnershipTransferred",
      "type": "event"
    },
    {
      "anonymous": false,
      "inputs": [
        {
          "indexed": false,
          "internalType": "address",
          "name": "account",
          "type": "address"
        }
      ],
      "name": "Paused",
      "type": "event"
    },
    {
      "anonymous": false,
      "inputs": [
        {
          "indexed": true,
          "internalType": "address",
          "name": "from",
          "type": "address"
        },
        {
          "indexed": true,
          "internalType": "address",
          "name": "to",
          "type": "address"
        },
        {
          "indexed": false,
          "internalType": "uint256",
          "name": "value",
          "type": "uint256"
        }
      ],
      "name": "Transfer",
      "type": "event"
    },
    {
      "anonymous": false,
      "inputs": [
        {
          "indexed": false,
          "internalType": "address",
          "name": "account",
          "type": "address"
        }
      ],
      "name": "Unpaused",
      "type": "event"
    },
    {
      "inputs": [],
      "name": "_initialExchangeRate",
      "outputs": [
        {
          "internalType": "uint256",
          "name": "",
          "type": "uint256"
        }
      ],
      "stateMutability": "view",
      "type": "function"
    },
    {
      "inputs": [
        {
          "internalType": "address",
          "name": "owner",
          "type": "address"
        },
        {
          "internalType": "address",
          "name": "spender",
          "type": "address"
        }
      ],
      "name": "allowance",
      "outputs": [
        {
          "internalType": "uint256",
          "name": "",
          "type": "uint256"
        }
      ],
      "stateMutability": "view",
      "type": "function"
    },
    {
      "inputs": [
        {
          "internalType": "address",
          "name": "spender",
          "type": "address"
        },
        {
          "internalType": "uint256",
          "name": "amount",
          "type": "uint256"
        }
      ],
      "name": "approve",
      "outputs": [
        {
          "internalType": "bool",
          "name": "",
          "type": "bool"
        }
      ],
      "stateMutability": "nonpayable",
      "type": "function"
    },
    {
      "inputs": [
        {
          "internalType": "address",
          "name": "owner",
          "type": "address"
        }
      ],
      "name": "balanceOf",
      "outputs": [
        {
          "internalType": "uint256",
          "name": "",
          "type": "uint256"
        }
      ],
      "stateMutability": "view",
      "type": "function"
    },
    {
      "inputs": [],
      "name": "decimals",
      "outputs": [
        {
          "internalType": "uint8",
          "name": "",
          "type": "uint8"
        }
      ],
      "stateMutability": "view",
      "type": "function"
    },
    {
      "inputs": [
        {
          "internalType": "address",
          "name": "spender",
          "type": "address"
        },
        {
          "internalType": "uint256",
          "name": "subtractedValue",
          "type": "uint256"
        }
      ],
      "name": "decreaseAllowance",
      "outputs": [
        {
          "internalType": "bool",
          "name": "",
          "type": "bool"
        }
      ],
      "stateMutability": "nonpayable",
      "type": "function"
    },
    {
      "inputs": [],
      "name": "getExchangeRate",
      "outputs": [
        {
          "internalType": "uint256",
          "name": "",
          "type": "uint256"
        }
      ],
      "stateMutability": "view",
      "type": "function"
    },
    {
      "inputs": [
        {
          "internalType": "address",
          "name": "spender",
          "type": "address"
        },
        {
          "internalType": "uint256",
          "name": "addedValue",
          "type": "uint256"
        }
      ],
      "name": "increaseAllowance",
      "outputs": [
        {
          "internalType": "bool",
          "name": "",
          "type": "bool"
        }
      ],
      "stateMutability": "nonpayable",
      "type": "function"
    },
    {
      "inputs": [],
      "name": "mint",
      "outputs": [],
      "stateMutability": "payable",
      "type": "function"
    },
    {
      "inputs": [],
      "name": "name",
      "outputs": [
        {
          "internalType": "string",
          "name": "",
          "type": "string"
        }
      ],
      "stateMutability": "view",
      "type": "function"
    },
    {
      "inputs": [],
      "name": "owner",
      "outputs": [
        {
          "internalType": "address",
          "name": "",
          "type": "address"
        }
      ],
      "stateMutability": "view",
      "type": "function"
    },
    {
      "inputs": [],
      "name": "pause",
      "outputs": [],
      "stateMutability": "nonpayable",
      "type": "function"
    },
    {
      "inputs": [],
      "name": "paused",
      "outputs": [
        {
          "internalType": "bool",
          "name": "",
          "type": "bool"
        }
      ],
      "stateMutability": "view",
      "type": "function"
    },
    {
      "inputs": [],
      "name": "renounceOwnership",
      "outputs": [],
      "stateMutability": "nonpayable",
      "type": "function"
    },
    {
      "inputs": [],
      "name": "symbol",
      "outputs": [
        {
          "internalType": "string",
          "name": "",
          "type": "string"
        }
      ],
      "stateMutability": "view",
      "type": "function"
    },
    {
      "inputs": [],
      "name": "totalBalance",
      "outputs": [
        {
          "internalType": "uint256",
          "name": "bal",
          "type": "uint256"
        }
      ],
      "stateMutability": "view",
      "type": "function"
    },
    {
      "inputs": [],
      "name": "totalSupply",
      "outputs": [
        {
          "internalType": "uint256",
          "name": "",
          "type": "uint256"
        }
      ],
      "stateMutability": "view",
      "type": "function"
    },
    {
      "inputs": [
        {
          "internalType": "address",
          "name": "recipient",
          "type": "address"
        },
        {
          "internalType": "uint256",
          "name": "amount",
          "type": "uint256"
        }
      ],
      "name": "transfer",
      "outputs": [
        {
          "internalType": "bool",
          "name": "",
          "type": "bool"
        }
      ],
      "stateMutability": "nonpayable",
      "type": "function"
    },
    {
      "inputs": [
        {
          "internalType": "address",
          "name": "sender",
          "type": "address"
        },
        {
          "internalType": "address",
          "name": "recipient",
          "type": "address"
        },
        {
          "internalType": "uint256",
          "name": "amount",
          "type": "uint256"
        }
      ],
      "name": "transferFrom",
      "outputs": [
        {
          "internalType": "bool",
          "name": "",
          "type": "bool"
        }
      ],
      "stateMutability": "nonpayable",
      "type": "function"
    },
    {
      "inputs": [
        {
          "internalType": "address",
          "name": "newOwner",
          "type": "address"
        }
      ],
      "name": "transferOwnership",
      "outputs": [],
      "stateMutability": "nonpayable",
      "type": "function"
    },
    {
      "inputs": [],
      "name": "unpause",
      "outputs": [],
      "stateMutability": "nonpayable",
      "type": "function"
    },
    {
      "inputs": [],
      "name": "withdraw",
      "outputs": [],
      "stateMutability": "nonpayable",
      "type": "function"
    },
    {
      "stateMutability": "payable",
      "type": "receive"
    }
  ],
  "bytecode": "0x60806040523480156200001157600080fd5b5060405162002773380380620027738339818101604052810190620000379190620002bf565b828281600390805190602001906200005192919062000186565b5080600490805190602001906200006a92919062000186565b5050506000600560006101000a81548160ff021916908315150217905550620000a86200009c620000b860201b60201c565b620000c060201b60201c565b80600681905550505050620004db565b600033905090565b6000600560019054906101000a900473ffffffffffffffffffffffffffffffffffffffff16905081600560016101000a81548173ffffffffffffffffffffffffffffffffffffffff021916908373ffffffffffffffffffffffffffffffffffffffff1602179055508173ffffffffffffffffffffffffffffffffffffffff168173ffffffffffffffffffffffffffffffffffffffff167f8be0079c531659141344cd1fd0a4f28419497f9722a3daafe3b4186f6b6457e060405160405180910390a35050565b8280546200019490620003e6565b90600052602060002090601f016020900481019282620001b8576000855562000204565b82601f10620001d357805160ff191683800117855562000204565b8280016001018555821562000204579182015b8281111562000203578251825591602001919060010190620001e6565b5b50905062000213919062000217565b5090565b5b808211156200023257600081600090555060010162000218565b5090565b60006200024d620002478462000370565b62000347565b9050828152602081018484840111156200026657600080fd5b62000273848285620003b0565b509392505050565b600082601f8301126200028d57600080fd5b81516200029f84826020860162000236565b91505092915050565b600081519050620002b981620004c1565b92915050565b600080600060608486031215620002d557600080fd5b600084015167ffffffffffffffff811115620002f057600080fd5b620002fe868287016200027b565b935050602084015167ffffffffffffffff8111156200031c57600080fd5b6200032a868287016200027b565b92505060406200033d86828701620002a8565b9150509250925092565b60006200035362000366565b90506200036182826200041c565b919050565b6000604051905090565b600067ffffffffffffffff8211156200038e576200038d62000481565b5b6200039982620004b0565b9050602081019050919050565b6000819050919050565b60005b83811015620003d0578082015181840152602081019050620003b3565b83811115620003e0576000848401525b50505050565b60006002820490506001821680620003ff57607f821691505b6020821081141562000416576200041562000452565b5b50919050565b6200042782620004b0565b810181811067ffffffffffffffff8211171562000449576200044862000481565b5b80604052505050565b7f4e487b7100000000000000000000000000000000000000000000000000000000600052602260045260246000fd5b7f4e487b7100000000000000000000000000000000000000000000000000000000600052604160045260246000fd5b6000601f19601f8301169050919050565b620004cc81620003a6565b8114620004d857600080fd5b50565b61228880620004eb6000396000f3fe6080604052600436106101395760003560e01c806370a08231116100ab578063a457c2d71161006f578063a457c2d7146103cc578063a9059cbb14610409578063ad7a672f14610446578063dd62ed3e14610471578063e6aa216c146104ae578063f2fde38b146104d957610140565b806370a082311461030b578063715018a6146103485780638456cb591461035f5780638da5cb5b1461037657806395d89b41146103a157610140565b8063313ce567116100fd578063313ce5671461021f578063395093511461024a5780633ccfd60b146102875780633f4ba83a1461029e57806353d31b68146102b55780635c975abb146102e057610140565b806306fdde0314610145578063095ea7b3146101705780631249c58b146101ad57806318160ddd146101b757806323b872dd146101e257610140565b3661014057005b600080fd5b34801561015157600080fd5b5061015a610502565b604051610167919061195d565b60405180910390f35b34801561017c57600080fd5b50610197600480360381019061019291906116d2565b610594565b6040516101a49190611942565b60405180910390f35b6101b56105b2565b005b3480156101c357600080fd5b506101cc6105ef565b6040516101d99190611aff565b60405180910390f35b3480156101ee57600080fd5b5061020960048036038101906102049190611683565b6105f9565b6040516102169190611942565b60405180910390f35b34801561022b57600080fd5b506102346106f1565b6040516102419190611b1a565b60405180910390f35b34801561025657600080fd5b50610271600480360381019061026c91906116d2565b6106fa565b60405161027e9190611942565b60405180910390f35b34801561029357600080fd5b5061029c6107a6565b005b3480156102aa57600080fd5b506102b3610872565b005b3480156102c157600080fd5b506102ca6108f8565b6040516102d79190611aff565b60405180910390f35b3480156102ec57600080fd5b506102f56108fe565b6040516103029190611942565b60405180910390f35b34801561031757600080fd5b50610332600480360381019061032d919061161e565b610915565b60405161033f9190611aff565b60405180910390f35b34801561035457600080fd5b5061035d610927565b005b34801561036b57600080fd5b506103746109af565b005b34801561038257600080fd5b5061038b610a35565b6040516103989190611927565b60405180910390f35b3480156103ad57600080fd5b506103b6610a5f565b6040516103c3919061195d565b60405180910390f35b3480156103d857600080fd5b506103f360048036038101906103ee91906116d2565b610af1565b6040516104009190611942565b60405180910390f35b34801561041557600080fd5b50610430600480360381019061042b91906116d2565b610bdc565b60405161043d9190611942565b60405180910390f35b34801561045257600080fd5b5061045b610bfa565b6040516104689190611aff565b60405180910390f35b34801561047d57600080fd5b5061049860048036038101906104939190611647565b610c02565b6040516104a59190611aff565b60405180910390f35b3480156104ba57600080fd5b506104c3610c89565b6040516104d09190611aff565b60405180910390f35b3480156104e557600080fd5b5061050060048036038101906104fb919061161e565b610c93565b005b60606003805461051190611e2b565b80601f016020809104026020016040519081016040528092919081815260200182805461053d90611e2b565b801561058a5780601f1061055f5761010080835404028352916020019161058a565b820191906000526020600020905b81548152906001019060200180831161056d57829003601f168201915b5050505050905090565b60006105a86105a1610d8b565b8484610d93565b6001905092915050565b60006006546105bf6106f1565b600a6105cb9190611c2b565b346105d69190611ba7565b6105e09190611d49565b90506105ec3382610f5e565b50565b6000600254905090565b60006106068484846110be565b6000600160008673ffffffffffffffffffffffffffffffffffffffff1673ffffffffffffffffffffffffffffffffffffffff1681526020019081526020016000206000610651610d8b565b73ffffffffffffffffffffffffffffffffffffffff1673ffffffffffffffffffffffffffffffffffffffff168152602001908152602001600020549050828110156106d1576040517f08c379a00000000000000000000000000000000000000000000000000000000081526004016106c890611a3f565b60405180910390fd5b6106e5856106dd610d8b565b858403610d93565b60019150509392505050565b60006012905090565b600061079c610707610d8b565b848460016000610715610d8b565b73ffffffffffffffffffffffffffffffffffffffff1673ffffffffffffffffffffffffffffffffffffffff16815260200190815260200160002060008873ffffffffffffffffffffffffffffffffffffffff1673ffffffffffffffffffffffffffffffffffffffff168152602001908152602001600020546107979190611b51565b610d93565b6001905092915050565b6107ae610d8b565b73ffffffffffffffffffffffffffffffffffffffff166107cc610a35565b73ffffffffffffffffffffffffffffffffffffffff1614610822576040517f08c379a000000000000000000000000000000000000000000000000000000000815260040161081990611a5f565b60405180910390fd5b61082a610a35565b73ffffffffffffffffffffffffffffffffffffffff166108fc479081150290604051600060405180830381858888f1935050505015801561086f573d6000803e3d6000fd5b50565b61087a610d8b565b73ffffffffffffffffffffffffffffffffffffffff16610898610a35565b73ffffffffffffffffffffffffffffffffffffffff16146108ee576040517f08c379a00000000000000000000000000000000000000000000000000000000081526004016108e590611a5f565b60405180910390fd5b6108f661133f565b565b60065481565b6000600560009054906101000a900460ff16905090565b6000610920826113e1565b9050919050565b61092f610d8b565b73ffffffffffffffffffffffffffffffffffffffff1661094d610a35565b73ffffffffffffffffffffffffffffffffffffffff16146109a3576040517f08c379a000000000000000000000000000000000000000000000000000000000815260040161099a90611a5f565b60405180910390fd5b6109ad6000611429565b565b6109b7610d8b565b73ffffffffffffffffffffffffffffffffffffffff166109d5610a35565b73ffffffffffffffffffffffffffffffffffffffff1614610a2b576040517f08c379a0000000000000000000000000000000000000000000000000000000008152600401610a2290611a5f565b60405180910390fd5b610a336114ef565b565b6000600560019054906101000a900473ffffffffffffffffffffffffffffffffffffffff16905090565b606060048054610a6e90611e2b565b80601f0160208091040260200160405190810160405280929190818152602001828054610a9a90611e2b565b8015610ae75780601f10610abc57610100808354040283529160200191610ae7565b820191906000526020600020905b815481529060010190602001808311610aca57829003601f168201915b5050505050905090565b60008060016000610b00610d8b565b73ffffffffffffffffffffffffffffffffffffffff1673ffffffffffffffffffffffffffffffffffffffff16815260200190815260200160002060008573ffffffffffffffffffffffffffffffffffffffff1673ffffffffffffffffffffffffffffffffffffffff16815260200190815260200160002054905082811015610bbd576040517f08c379a0000000000000000000000000000000000000000000000000000000008152600401610bb490611abf565b60405180910390fd5b610bd1610bc8610d8b565b85858403610d93565b600191505092915050565b6000610bf0610be9610d8b565b84846110be565b6001905092915050565b600047905090565b6000600160008473ffffffffffffffffffffffffffffffffffffffff1673ffffffffffffffffffffffffffffffffffffffff16815260200190815260200160002060008373ffffffffffffffffffffffffffffffffffffffff1673ffffffffffffffffffffffffffffffffffffffff16815260200190815260200160002054905092915050565b6000600654905090565b610c9b610d8b565b73ffffffffffffffffffffffffffffffffffffffff16610cb9610a35565b73ffffffffffffffffffffffffffffffffffffffff1614610d0f576040517f08c379a0000000000000000000000000000000000000000000000000000000008152600401610d0690611a5f565b60405180910390fd5b600073ffffffffffffffffffffffffffffffffffffffff168173ffffffffffffffffffffffffffffffffffffffff161415610d7f576040517f08c379a0000000000000000000000000000000000000000000000000000000008152600401610d76906119bf565b60405180910390fd5b610d8881611429565b50565b600033905090565b600073ffffffffffffffffffffffffffffffffffffffff168373ffffffffffffffffffffffffffffffffffffffff161415610e03576040517f08c379a0000000000000000000000000000000000000000000000000000000008152600401610dfa90611a9f565b60405180910390fd5b600073ffffffffffffffffffffffffffffffffffffffff168273ffffffffffffffffffffffffffffffffffffffff161415610e73576040517f08c379a0000000000000000000000000000000000000000000000000000000008152600401610e6a906119df565b60405180910390fd5b80600160008573ffffffffffffffffffffffffffffffffffffffff1673ffffffffffffffffffffffffffffffffffffffff16815260200190815260200160002060008473ffffffffffffffffffffffffffffffffffffffff1673ffffffffffffffffffffffffffffffffffffffff168152602001908152602001600020819055508173ffffffffffffffffffffffffffffffffffffffff168373ffffffffffffffffffffffffffffffffffffffff167f8c5be1e5ebec7d5bd14f71427d1e84f3dd0314c0f7b2291e5b200ac8c7c3b92583604051610f519190611aff565b60405180910390a3505050565b600073ffffffffffffffffffffffffffffffffffffffff168273ffffffffffffffffffffffffffffffffffffffff161415610fce576040517f08c379a0000000000000000000000000000000000000000000000000000000008152600401610fc590611adf565b60405180910390fd5b610fda60008383611592565b8060026000828254610fec9190611b51565b92505081905550806000808473ffffffffffffffffffffffffffffffffffffffff1673ffffffffffffffffffffffffffffffffffffffff16815260200190815260200160002060008282546110419190611b51565b925050819055508173ffffffffffffffffffffffffffffffffffffffff16600073ffffffffffffffffffffffffffffffffffffffff167fddf252ad1be2c89b69c2b068fc378daa952ba7f163c4a11628f55a4df523b3ef836040516110a69190611aff565b60405180910390a36110ba600083836115ea565b5050565b600073ffffffffffffffffffffffffffffffffffffffff168373ffffffffffffffffffffffffffffffffffffffff16141561112e576040517f08c379a000000000000000000000000000000000000000000000000000000000815260040161112590611a7f565b60405180910390fd5b600073ffffffffffffffffffffffffffffffffffffffff168273ffffffffffffffffffffffffffffffffffffffff16141561119e576040517f08c379a00000000000000000000000000000000000000000000000000000000081526004016111959061197f565b60405180910390fd5b6111a9838383611592565b60008060008573ffffffffffffffffffffffffffffffffffffffff1673ffffffffffffffffffffffffffffffffffffffff1681526020019081526020016000205490508181101561122f576040517f08c379a0000000000000000000000000000000000000000000000000000000008152600401611226906119ff565b60405180910390fd5b8181036000808673ffffffffffffffffffffffffffffffffffffffff1673ffffffffffffffffffffffffffffffffffffffff16815260200190815260200160002081905550816000808573ffffffffffffffffffffffffffffffffffffffff1673ffffffffffffffffffffffffffffffffffffffff16815260200190815260200160002060008282546112c29190611b51565b925050819055508273ffffffffffffffffffffffffffffffffffffffff168473ffffffffffffffffffffffffffffffffffffffff167fddf252ad1be2c89b69c2b068fc378daa952ba7f163c4a11628f55a4df523b3ef846040516113269190611aff565b60405180910390a36113398484846115ea565b50505050565b6113476108fe565b611386576040517f08c379a000000000000000000000000000000000000000000000000000000000815260040161137d9061199f565b60405180910390fd5b6000600560006101000a81548160ff0219169083151502179055507f5db9ee0a495bf2e6ff9c91a7834c1ba4fdd244a5e8aa4e537bd38aeae4b073aa6113ca610d8b565b6040516113d79190611927565b60405180910390a1565b60008060008373ffffffffffffffffffffffffffffffffffffffff1673ffffffffffffffffffffffffffffffffffffffff168152602001908152602001600020549050919050565b6000600560019054906101000a900473ffffffffffffffffffffffffffffffffffffffff16905081600560016101000a81548173ffffffffffffffffffffffffffffffffffffffff021916908373ffffffffffffffffffffffffffffffffffffffff1602179055508173ffffffffffffffffffffffffffffffffffffffff168173ffffffffffffffffffffffffffffffffffffffff167f8be0079c531659141344cd1fd0a4f28419497f9722a3daafe3b4186f6b6457e060405160405180910390a35050565b6114f76108fe565b15611537576040517f08c379a000000000000000000000000000000000000000000000000000000000815260040161152e90611a1f565b60405180910390fd5b6001600560006101000a81548160ff0219169083151502179055507f62e78cea01bee320cd4e420270b5ea74000d11b0c9f74754ebdbfc544b05a25861157b610d8b565b6040516115889190611927565b60405180910390a1565b61159a6108fe565b156115da576040517f08c379a00000000000000000000000000000000000000000000000000000000081526004016115d190611a1f565b60405180910390fd5b6115e58383836115ef565b505050565b505050565b505050565b60008135905061160381612224565b92915050565b6000813590506116188161223b565b92915050565b60006020828403121561163057600080fd5b600061163e848285016115f4565b91505092915050565b6000806040838503121561165a57600080fd5b6000611668858286016115f4565b9250506020611679858286016115f4565b9150509250929050565b60008060006060848603121561169857600080fd5b60006116a6868287016115f4565b93505060206116b7868287016115f4565b92505060406116c886828701611609565b9150509250925092565b600080604083850312156116e557600080fd5b60006116f3858286016115f4565b925050602061170485828601611609565b9150509250929050565b61171781611da3565b82525050565b61172681611db5565b82525050565b600061173782611b35565b6117418185611b40565b9350611751818560208601611df8565b61175a81611eea565b840191505092915050565b6000611772602383611b40565b915061177d82611f08565b604082019050919050565b6000611795601483611b40565b91506117a082611f57565b602082019050919050565b60006117b8602683611b40565b91506117c382611f80565b604082019050919050565b60006117db602283611b40565b91506117e682611fcf565b604082019050919050565b60006117fe602683611b40565b91506118098261201e565b604082019050919050565b6000611821601083611b40565b915061182c8261206d565b602082019050919050565b6000611844602883611b40565b915061184f82612096565b604082019050919050565b6000611867602083611b40565b9150611872826120e5565b602082019050919050565b600061188a602583611b40565b91506118958261210e565b604082019050919050565b60006118ad602483611b40565b91506118b88261215d565b604082019050919050565b60006118d0602583611b40565b91506118db826121ac565b604082019050919050565b60006118f3601f83611b40565b91506118fe826121fb565b602082019050919050565b61191281611de1565b82525050565b61192181611deb565b82525050565b600060208201905061193c600083018461170e565b92915050565b6000602082019050611957600083018461171d565b92915050565b60006020820190508181036000830152611977818461172c565b905092915050565b6000602082019050818103600083015261199881611765565b9050919050565b600060208201905081810360008301526119b881611788565b9050919050565b600060208201905081810360008301526119d8816117ab565b9050919050565b600060208201905081810360008301526119f8816117ce565b9050919050565b60006020820190508181036000830152611a18816117f1565b9050919050565b60006020820190508181036000830152611a3881611814565b9050919050565b60006020820190508181036000830152611a5881611837565b9050919050565b60006020820190508181036000830152611a788161185a565b9050919050565b60006020820190508181036000830152611a988161187d565b9050919050565b60006020820190508181036000830152611ab8816118a0565b9050919050565b60006020820190508181036000830152611ad8816118c3565b9050919050565b60006020820190508181036000830152611af8816118e6565b9050919050565b6000602082019050611b146000830184611909565b92915050565b6000602082019050611b2f6000830184611918565b92915050565b600081519050919050565b600082825260208201905092915050565b6000611b5c82611de1565b9150611b6783611de1565b9250827fffffffffffffffffffffffffffffffffffffffffffffffffffffffffffffffff03821115611b9c57611b9b611e5d565b5b828201905092915050565b6000611bb282611de1565b9150611bbd83611de1565b925082611bcd57611bcc611e8c565b5b828204905092915050565b6000808291508390505b6001851115611c2257808604811115611bfe57611bfd611e5d565b5b6001851615611c0d5780820291505b8081029050611c1b85611efb565b9450611be2565b94509492505050565b6000611c3682611de1565b9150611c4183611deb565b9250611c6e7fffffffffffffffffffffffffffffffffffffffffffffffffffffffffffffffff8484611c76565b905092915050565b600082611c865760019050611d42565b81611c945760009050611d42565b8160018114611caa5760028114611cb457611ce3565b6001915050611d42565b60ff841115611cc657611cc5611e5d565b5b8360020a915084821115611cdd57611cdc611e5d565b5b50611d42565b5060208310610133831016604e8410600b8410161715611d185782820a905083811115611d1357611d12611e5d565b5b611d42565b611d258484846001611bd8565b92509050818404811115611d3c57611d3b611e5d565b5b81810290505b9392505050565b6000611d5482611de1565b9150611d5f83611de1565b9250817fffffffffffffffffffffffffffffffffffffffffffffffffffffffffffffffff0483118215151615611d9857611d97611e5d565b5b828202905092915050565b6000611dae82611dc1565b9050919050565b60008115159050919050565b600073ffffffffffffffffffffffffffffffffffffffff82169050919050565b6000819050919050565b600060ff82169050919050565b60005b83811015611e16578082015181840152602081019050611dfb565b83811115611e25576000848401525b50505050565b60006002820490506001821680611e4357607f821691505b60208210811415611e5757611e56611ebb565b5b50919050565b7f4e487b7100000000000000000000000000000000000000000000000000000000600052601160045260246000fd5b7f4e487b7100000000000000000000000000000000000000000000000000000000600052601260045260246000fd5b7f4e487b7100000000000000000000000000000000000000000000000000000000600052602260045260246000fd5b6000601f19601f8301169050919050565b60008160011c9050919050565b7f45524332303a207472616e7366657220746f20746865207a65726f206164647260008201527f6573730000000000000000000000000000000000000000000000000000000000602082015250565b7f5061757361626c653a206e6f7420706175736564000000000000000000000000600082015250565b7f4f776e61626c653a206e6577206f776e657220697320746865207a65726f206160008201527f6464726573730000000000000000000000000000000000000000000000000000602082015250565b7f45524332303a20617070726f766520746f20746865207a65726f20616464726560008201527f7373000000000000000000000000000000000000000000000000000000000000602082015250565b7f45524332303a207472616e7366657220616d6f756e742065786365656473206260008201527f616c616e63650000000000000000000000000000000000000000000000000000602082015250565b7f5061757361626c653a2070617573656400000000000000000000000000000000600082015250565b7f45524332303a207472616e7366657220616d6f756e742065786365656473206160008201527f6c6c6f77616e6365000000000000000000000000000000000000000000000000602082015250565b7f4f776e61626c653a2063616c6c6572206973206e6f7420746865206f776e6572600082015250565b7f45524332303a207472616e736665722066726f6d20746865207a65726f20616460008201527f6472657373000000000000000000000000000000000000000000000000000000602082015250565b7f45524332303a20617070726f76652066726f6d20746865207a65726f2061646460008201527f7265737300000000000000000000000000000000000000000000000000000000602082015250565b7f45524332303a2064656372656173656420616c6c6f77616e63652062656c6f7760008201527f207a65726f000000000000000000000000000000000000000000000000000000602082015250565b7f45524332303a206d696e7420746f20746865207a65726f206164647265737300600082015250565b61222d81611da3565b811461223857600080fd5b50565b61224481611de1565b811461224f57600080fd5b5056fea264697066735822122014e1f8632ef44d14de17e340f9bc5780a07aa1b845deddc7c0517b77de119a9364736f6c63430008040033",
  "linkReferences": {},
  "deployedLinkReferences": {}
}