{
  "_format": "hh-sol-artifact-1",
  "contractName": "SMT",
  "sourceName": "contracts/SMT.sol",
  "abi": [
    {
      "inputs": [
        {
          "internalType": "string",
          "name": "name",
          "type": "string"
        },
        {
          "internalType": "string",
          "name": "symbol",
          "type": "string"
        },
        {
          "internalType": "uint256",
          "name": "initialExchangeRate",
          "type": "uint256"
        }
      ],
      "stateMutability": "nonpayable",
      "type": "constructor"
    },
    {
      "anonymous": false,
      "inputs": [
        {
          "indexed": true,
          "internalType": "address",
          "name": "owner",
          "type": "address"
        },
        {
          "indexed": true,
          "internalType": "address",
          "name": "spender",
          "type": "address"
        },
        {
          "indexed": false,
          "internalType": "uint256",
          "name": "value",
          "type": "uint256"
        }
      ],
      "name": "Approval",
      "type": "event"
    },
    {
      "anonymous": false,
      "inputs": [
        {
          "indexed": true,
          "internalType": "address",
          "name": "previousOwner",
          "type": "address"
        },
        {
          "indexed": true,
          "internalType": "address",
          "name": "newOwner",
          "type": "address"
        }
      ],
      "name": "OwnershipTransferred",
      "type": "event"
    },
    {
      "anonymous": false,
      "inputs": [
        {
          "indexed": false,
          "internalType": "address",
          "name": "account",
          "type": "address"
        }
      ],
      "name": "Paused",
      "type": "event"
    },
    {
      "anonymous": false,
      "inputs": [
        {
          "indexed": true,
          "internalType": "address",
          "name": "from",
          "type": "address"
        },
        {
          "indexed": true,
          "internalType": "address",
          "name": "to",
          "type": "address"
        },
        {
          "indexed": false,
          "internalType": "uint256",
          "name": "value",
          "type": "uint256"
        }
      ],
      "name": "Transfer",
      "type": "event"
    },
    {
      "anonymous": false,
      "inputs": [
        {
          "indexed": false,
          "internalType": "address",
          "name": "account",
          "type": "address"
        }
      ],
      "name": "Unpaused",
      "type": "event"
    },
    {
      "inputs": [],
      "name": "_initialExchangeRate",
      "outputs": [
        {
          "internalType": "uint256",
          "name": "",
          "type": "uint256"
        }
      ],
      "stateMutability": "view",
      "type": "function"
    },
    {
      "inputs": [
        {
          "internalType": "address",
          "name": "owner",
          "type": "address"
        },
        {
          "internalType": "address",
          "name": "spender",
          "type": "address"
        }
      ],
      "name": "allowance",
      "outputs": [
        {
          "internalType": "uint256",
          "name": "",
          "type": "uint256"
        }
      ],
      "stateMutability": "view",
      "type": "function"
    },
    {
      "inputs": [
        {
          "internalType": "address",
          "name": "spender",
          "type": "address"
        },
        {
          "internalType": "uint256",
          "name": "amount",
          "type": "uint256"
        }
      ],
      "name": "approve",
      "outputs": [
        {
          "internalType": "bool",
          "name": "",
          "type": "bool"
        }
      ],
      "stateMutability": "nonpayable",
      "type": "function"
    },
    {
      "inputs": [
        {
          "internalType": "address",
          "name": "owner",
          "type": "address"
        }
      ],
      "name": "balanceOf",
      "outputs": [
        {
          "internalType": "uint256",
          "name": "",
          "type": "uint256"
        }
      ],
      "stateMutability": "view",
      "type": "function"
    },
    {
      "inputs": [],
      "name": "decimals",
      "outputs": [
        {
          "internalType": "uint8",
          "name": "",
          "type": "uint8"
        }
      ],
      "stateMutability": "view",
      "type": "function"
    },
    {
      "inputs": [
        {
          "internalType": "address",
          "name": "spender",
          "type": "address"
        },
        {
          "internalType": "uint256",
          "name": "subtractedValue",
          "type": "uint256"
        }
      ],
      "name": "decreaseAllowance",
      "outputs": [
        {
          "internalType": "bool",
          "name": "",
          "type": "bool"
        }
      ],
      "stateMutability": "nonpayable",
      "type": "function"
    },
    {
      "inputs": [],
      "name": "getExchangeRate",
      "outputs": [
        {
          "internalType": "uint256",
          "name": "",
          "type": "uint256"
        }
      ],
      "stateMutability": "view",
      "type": "function"
    },
    {
      "inputs": [
        {
          "internalType": "address",
          "name": "spender",
          "type": "address"
        },
        {
          "internalType": "uint256",
          "name": "addedValue",
          "type": "uint256"
        }
      ],
      "name": "increaseAllowance",
      "outputs": [
        {
          "internalType": "bool",
          "name": "",
          "type": "bool"
        }
      ],
      "stateMutability": "nonpayable",
      "type": "function"
    },
    {
      "inputs": [],
      "name": "mint",
      "outputs": [],
      "stateMutability": "payable",
      "type": "function"
    },
    {
      "inputs": [],
      "name": "name",
      "outputs": [
        {
          "internalType": "string",
          "name": "",
          "type": "string"
        }
      ],
      "stateMutability": "view",
      "type": "function"
    },
    {
      "inputs": [],
      "name": "owner",
      "outputs": [
        {
          "internalType": "address",
          "name": "",
          "type": "address"
        }
      ],
      "stateMutability": "view",
      "type": "function"
    },
    {
      "inputs": [],
      "name": "pause",
      "outputs": [],
      "stateMutability": "nonpayable",
      "type": "function"
    },
    {
      "inputs": [],
      "name": "paused",
      "outputs": [
        {
          "internalType": "bool",
          "name": "",
          "type": "bool"
        }
      ],
      "stateMutability": "view",
      "type": "function"
    },
    {
      "inputs": [],
      "name": "renounceOwnership",
      "outputs": [],
      "stateMutability": "nonpayable",
      "type": "function"
    },
    {
      "inputs": [],
      "name": "symbol",
      "outputs": [
        {
          "internalType": "string",
          "name": "",
          "type": "string"
        }
      ],
      "stateMutability": "view",
      "type": "function"
    },
    {
      "inputs": [],
      "name": "totalBalance",
      "outputs": [
        {
          "internalType": "uint256",
          "name": "bal",
          "type": "uint256"
        }
      ],
      "stateMutability": "view",
      "type": "function"
    },
    {
      "inputs": [],
      "name": "totalSupply",
      "outputs": [
        {
          "internalType": "uint256",
          "name": "",
          "type": "uint256"
        }
      ],
      "stateMutability": "view",
      "type": "function"
    },
    {
      "inputs": [
        {
          "internalType": "address",
          "name": "recipient",
          "type": "address"
        },
        {
          "internalType": "uint256",
          "name": "amount",
          "type": "uint256"
        }
      ],
      "name": "transfer",
      "outputs": [
        {
          "internalType": "bool",
          "name": "",
          "type": "bool"
        }
      ],
      "stateMutability": "nonpayable",
      "type": "function"
    },
    {
      "inputs": [
        {
          "internalType": "address",
          "name": "sender",
          "type": "address"
        },
        {
          "internalType": "address",
          "name": "recipient",
          "type": "address"
        },
        {
          "internalType": "uint256",
          "name": "amount",
          "type": "uint256"
        }
      ],
      "name": "transferFrom",
      "outputs": [
        {
          "internalType": "bool",
          "name": "",
          "type": "bool"
        }
      ],
      "stateMutability": "nonpayable",
      "type": "function"
    },
    {
      "inputs": [
        {
          "internalType": "address",
          "name": "newOwner",
          "type": "address"
        }
      ],
      "name": "transferOwnership",
      "outputs": [],
      "stateMutability": "nonpayable",
      "type": "function"
    },
    {
      "inputs": [],
      "name": "unpause",
      "outputs": [],
      "stateMutability": "nonpayable",
      "type": "function"
    },
    {
      "inputs": [],
      "name": "withdraw",
      "outputs": [],
      "stateMutability": "nonpayable",
      "type": "function"
    },
    {
      "stateMutability": "payable",
      "type": "receive"
    }
  ],
  "bytecode": "0x60806040523480156200001157600080fd5b506040516200257d3803806200257d8339818101604052810190620000379190620002bf565b828281600390805190602001906200005192919062000186565b5080600490805190602001906200006a92919062000186565b5050506000600560006101000a81548160ff021916908315150217905550620000a86200009c620000b860201b60201c565b620000c060201b60201c565b80600681905550505050620004db565b600033905090565b6000600560019054906101000a900473ffffffffffffffffffffffffffffffffffffffff16905081600560016101000a81548173ffffffffffffffffffffffffffffffffffffffff021916908373ffffffffffffffffffffffffffffffffffffffff1602179055508173ffffffffffffffffffffffffffffffffffffffff168173ffffffffffffffffffffffffffffffffffffffff167f8be0079c531659141344cd1fd0a4f28419497f9722a3daafe3b4186f6b6457e060405160405180910390a35050565b8280546200019490620003e6565b90600052602060002090601f016020900481019282620001b8576000855562000204565b82601f10620001d357805160ff191683800117855562000204565b8280016001018555821562000204579182015b8281111562000203578251825591602001919060010190620001e6565b5b50905062000213919062000217565b5090565b5b808211156200023257600081600090555060010162000218565b5090565b60006200024d620002478462000370565b62000347565b9050828152602081018484840111156200026657600080fd5b62000273848285620003b0565b509392505050565b600082601f8301126200028d57600080fd5b81516200029f84826020860162000236565b91505092915050565b600081519050620002b981620004c1565b92915050565b600080600060608486031215620002d557600080fd5b600084015167ffffffffffffffff811115620002f057600080fd5b620002fe868287016200027b565b935050602084015167ffffffffffffffff8111156200031c57600080fd5b6200032a868287016200027b565b92505060406200033d86828701620002a8565b9150509250925092565b60006200035362000366565b90506200036182826200041c565b919050565b6000604051905090565b600067ffffffffffffffff8211156200038e576200038d62000481565b5b6200039982620004b0565b9050602081019050919050565b6000819050919050565b60005b83811015620003d0578082015181840152602081019050620003b3565b83811115620003e0576000848401525b50505050565b60006002820490506001821680620003ff57607f821691505b6020821081141562000416576200041562000452565b5b50919050565b6200042782620004b0565b810181811067ffffffffffffffff8211171562000449576200044862000481565b5b80604052505050565b7f4e487b7100000000000000000000000000000000000000000000000000000000600052602260045260246000fd5b7f4e487b7100000000000000000000000000000000000000000000000000000000600052604160045260246000fd5b6000601f19601f8301169050919050565b620004cc81620003a6565b8114620004d857600080fd5b50565b61209280620004eb6000396000f3fe6080604052600436106101395760003560e01c806370a08231116100ab578063a457c2d71161006f578063a457c2d7146103cc578063a9059cbb14610409578063ad7a672f14610446578063dd62ed3e14610471578063e6aa216c146104ae578063f2fde38b146104d957610140565b806370a082311461030b578063715018a6146103485780638456cb591461035f5780638da5cb5b1461037657806395d89b41146103a157610140565b8063313ce567116100fd578063313ce5671461021f578063395093511461024a5780633ccfd60b146102875780633f4ba83a1461029e57806353d31b68146102b55780635c975abb146102e057610140565b806306fdde0314610145578063095ea7b3146101705780631249c58b146101ad57806318160ddd146101b757806323b872dd146101e257610140565b3661014057005b600080fd5b34801561015157600080fd5b5061015a610502565b604051610167919061193f565b60405180910390f35b34801561017c57600080fd5b50610197600480360381019061019291906116b4565b610594565b6040516101a49190611924565b60405180910390f35b6101b56105b2565b005b3480156101c357600080fd5b506101cc6105d1565b6040516101d99190611ae1565b60405180910390f35b3480156101ee57600080fd5b5061020960048036038101906102049190611665565b6105db565b6040516102169190611924565b60405180910390f35b34801561022b57600080fd5b506102346106d3565b6040516102419190611afc565b60405180910390f35b34801561025657600080fd5b50610271600480360381019061026c91906116b4565b6106dc565b60405161027e9190611924565b60405180910390f35b34801561029357600080fd5b5061029c610788565b005b3480156102aa57600080fd5b506102b3610854565b005b3480156102c157600080fd5b506102ca6108da565b6040516102d79190611ae1565b60405180910390f35b3480156102ec57600080fd5b506102f56108e0565b6040516103029190611924565b60405180910390f35b34801561031757600080fd5b50610332600480360381019061032d9190611600565b6108f7565b60405161033f9190611ae1565b60405180910390f35b34801561035457600080fd5b5061035d610909565b005b34801561036b57600080fd5b50610374610991565b005b34801561038257600080fd5b5061038b610a17565b6040516103989190611909565b60405180910390f35b3480156103ad57600080fd5b506103b6610a41565b6040516103c3919061193f565b60405180910390f35b3480156103d857600080fd5b506103f360048036038101906103ee91906116b4565b610ad3565b6040516104009190611924565b60405180910390f35b34801561041557600080fd5b50610430600480360381019061042b91906116b4565b610bbe565b60405161043d9190611924565b60405180910390f35b34801561045257600080fd5b5061045b610bdc565b6040516104689190611ae1565b60405180910390f35b34801561047d57600080fd5b5061049860048036038101906104939190611629565b610be4565b6040516104a59190611ae1565b60405180910390f35b3480156104ba57600080fd5b506104c3610c6b565b6040516104d09190611ae1565b60405180910390f35b3480156104e557600080fd5b5061050060048036038101906104fb9190611600565b610c75565b005b60606003805461051190611c42565b80601f016020809104026020016040519081016040528092919081815260200182805461053d90611c42565b801561058a5780601f1061055f5761010080835404028352916020019161058a565b820191906000526020600020905b81548152906001019060200180831161056d57829003601f168201915b5050505050905090565b60006105a86105a1610d6d565b8484610d75565b6001905092915050565b6000600654346105c29190611b89565b90506105ce3382610f40565b50565b6000600254905090565b60006105e88484846110a0565b6000600160008673ffffffffffffffffffffffffffffffffffffffff1673ffffffffffffffffffffffffffffffffffffffff1681526020019081526020016000206000610633610d6d565b73ffffffffffffffffffffffffffffffffffffffff1673ffffffffffffffffffffffffffffffffffffffff168152602001908152602001600020549050828110156106b3576040517f08c379a00000000000000000000000000000000000000000000000000000000081526004016106aa90611a21565b60405180910390fd5b6106c7856106bf610d6d565b858403610d75565b60019150509392505050565b60006012905090565b600061077e6106e9610d6d565b8484600160006106f7610d6d565b73ffffffffffffffffffffffffffffffffffffffff1673ffffffffffffffffffffffffffffffffffffffff16815260200190815260200160002060008873ffffffffffffffffffffffffffffffffffffffff1673ffffffffffffffffffffffffffffffffffffffff168152602001908152602001600020546107799190611b33565b610d75565b6001905092915050565b610790610d6d565b73ffffffffffffffffffffffffffffffffffffffff166107ae610a17565b73ffffffffffffffffffffffffffffffffffffffff1614610804576040517f08c379a00000000000000000000000000000000000000000000000000000000081526004016107fb90611a41565b60405180910390fd5b61080c610a17565b73ffffffffffffffffffffffffffffffffffffffff166108fc479081150290604051600060405180830381858888f19350505050158015610851573d6000803e3d6000fd5b50565b61085c610d6d565b73ffffffffffffffffffffffffffffffffffffffff1661087a610a17565b73ffffffffffffffffffffffffffffffffffffffff16146108d0576040517f08c379a00000000000000000000000000000000000000000000000000000000081526004016108c790611a41565b60405180910390fd5b6108d8611321565b565b60065481565b6000600560009054906101000a900460ff16905090565b6000610902826113c3565b9050919050565b610911610d6d565b73ffffffffffffffffffffffffffffffffffffffff1661092f610a17565b73ffffffffffffffffffffffffffffffffffffffff1614610985576040517f08c379a000000000000000000000000000000000000000000000000000000000815260040161097c90611a41565b60405180910390fd5b61098f600061140b565b565b610999610d6d565b73ffffffffffffffffffffffffffffffffffffffff166109b7610a17565b73ffffffffffffffffffffffffffffffffffffffff1614610a0d576040517f08c379a0000000000000000000000000000000000000000000000000000000008152600401610a0490611a41565b60405180910390fd5b610a156114d1565b565b6000600560019054906101000a900473ffffffffffffffffffffffffffffffffffffffff16905090565b606060048054610a5090611c42565b80601f0160208091040260200160405190810160405280929190818152602001828054610a7c90611c42565b8015610ac95780601f10610a9e57610100808354040283529160200191610ac9565b820191906000526020600020905b815481529060010190602001808311610aac57829003601f168201915b5050505050905090565b60008060016000610ae2610d6d565b73ffffffffffffffffffffffffffffffffffffffff1673ffffffffffffffffffffffffffffffffffffffff16815260200190815260200160002060008573ffffffffffffffffffffffffffffffffffffffff1673ffffffffffffffffffffffffffffffffffffffff16815260200190815260200160002054905082811015610b9f576040517f08c379a0000000000000000000000000000000000000000000000000000000008152600401610b9690611aa1565b60405180910390fd5b610bb3610baa610d6d565b85858403610d75565b600191505092915050565b6000610bd2610bcb610d6d565b84846110a0565b6001905092915050565b600047905090565b6000600160008473ffffffffffffffffffffffffffffffffffffffff1673ffffffffffffffffffffffffffffffffffffffff16815260200190815260200160002060008373ffffffffffffffffffffffffffffffffffffffff1673ffffffffffffffffffffffffffffffffffffffff16815260200190815260200160002054905092915050565b6000600654905090565b610c7d610d6d565b73ffffffffffffffffffffffffffffffffffffffff16610c9b610a17565b73ffffffffffffffffffffffffffffffffffffffff1614610cf1576040517f08c379a0000000000000000000000000000000000000000000000000000000008152600401610ce890611a41565b60405180910390fd5b600073ffffffffffffffffffffffffffffffffffffffff168173ffffffffffffffffffffffffffffffffffffffff161415610d61576040517f08c379a0000000000000000000000000000000000000000000000000000000008152600401610d58906119a1565b60405180910390fd5b610d6a8161140b565b50565b600033905090565b600073ffffffffffffffffffffffffffffffffffffffff168373ffffffffffffffffffffffffffffffffffffffff161415610de5576040517f08c379a0000000000000000000000000000000000000000000000000000000008152600401610ddc90611a81565b60405180910390fd5b600073ffffffffffffffffffffffffffffffffffffffff168273ffffffffffffffffffffffffffffffffffffffff161415610e55576040517f08c379a0000000000000000000000000000000000000000000000000000000008152600401610e4c906119c1565b60405180910390fd5b80600160008573ffffffffffffffffffffffffffffffffffffffff1673ffffffffffffffffffffffffffffffffffffffff16815260200190815260200160002060008473ffffffffffffffffffffffffffffffffffffffff1673ffffffffffffffffffffffffffffffffffffffff168152602001908152602001600020819055508173ffffffffffffffffffffffffffffffffffffffff168373ffffffffffffffffffffffffffffffffffffffff167f8c5be1e5ebec7d5bd14f71427d1e84f3dd0314c0f7b2291e5b200ac8c7c3b92583604051610f339190611ae1565b60405180910390a3505050565b600073ffffffffffffffffffffffffffffffffffffffff168273ffffffffffffffffffffffffffffffffffffffff161415610fb0576040517f08c379a0000000000000000000000000000000000000000000000000000000008152600401610fa790611ac1565b60405180910390fd5b610fbc60008383611574565b8060026000828254610fce9190611b33565b92505081905550806000808473ffffffffffffffffffffffffffffffffffffffff1673ffffffffffffffffffffffffffffffffffffffff16815260200190815260200160002060008282546110239190611b33565b925050819055508173ffffffffffffffffffffffffffffffffffffffff16600073ffffffffffffffffffffffffffffffffffffffff167fddf252ad1be2c89b69c2b068fc378daa952ba7f163c4a11628f55a4df523b3ef836040516110889190611ae1565b60405180910390a361109c600083836115cc565b5050565b600073ffffffffffffffffffffffffffffffffffffffff168373ffffffffffffffffffffffffffffffffffffffff161415611110576040517f08c379a000000000000000000000000000000000000000000000000000000000815260040161110790611a61565b60405180910390fd5b600073ffffffffffffffffffffffffffffffffffffffff168273ffffffffffffffffffffffffffffffffffffffff161415611180576040517f08c379a000000000000000000000000000000000000000000000000000000000815260040161117790611961565b60405180910390fd5b61118b838383611574565b60008060008573ffffffffffffffffffffffffffffffffffffffff1673ffffffffffffffffffffffffffffffffffffffff16815260200190815260200160002054905081811015611211576040517f08c379a0000000000000000000000000000000000000000000000000000000008152600401611208906119e1565b60405180910390fd5b8181036000808673ffffffffffffffffffffffffffffffffffffffff1673ffffffffffffffffffffffffffffffffffffffff16815260200190815260200160002081905550816000808573ffffffffffffffffffffffffffffffffffffffff1673ffffffffffffffffffffffffffffffffffffffff16815260200190815260200160002060008282546112a49190611b33565b925050819055508273ffffffffffffffffffffffffffffffffffffffff168473ffffffffffffffffffffffffffffffffffffffff167fddf252ad1be2c89b69c2b068fc378daa952ba7f163c4a11628f55a4df523b3ef846040516113089190611ae1565b60405180910390a361131b8484846115cc565b50505050565b6113296108e0565b611368576040517f08c379a000000000000000000000000000000000000000000000000000000000815260040161135f90611981565b60405180910390fd5b6000600560006101000a81548160ff0219169083151502179055507f5db9ee0a495bf2e6ff9c91a7834c1ba4fdd244a5e8aa4e537bd38aeae4b073aa6113ac610d6d565b6040516113b99190611909565b60405180910390a1565b60008060008373ffffffffffffffffffffffffffffffffffffffff1673ffffffffffffffffffffffffffffffffffffffff168152602001908152602001600020549050919050565b6000600560019054906101000a900473ffffffffffffffffffffffffffffffffffffffff16905081600560016101000a81548173ffffffffffffffffffffffffffffffffffffffff021916908373ffffffffffffffffffffffffffffffffffffffff1602179055508173ffffffffffffffffffffffffffffffffffffffff168173ffffffffffffffffffffffffffffffffffffffff167f8be0079c531659141344cd1fd0a4f28419497f9722a3daafe3b4186f6b6457e060405160405180910390a35050565b6114d96108e0565b15611519576040517f08c379a000000000000000000000000000000000000000000000000000000000815260040161151090611a01565b60405180910390fd5b6001600560006101000a81548160ff0219169083151502179055507f62e78cea01bee320cd4e420270b5ea74000d11b0c9f74754ebdbfc544b05a25861155d610d6d565b60405161156a9190611909565b60405180910390a1565b61157c6108e0565b156115bc576040517f08c379a00000000000000000000000000000000000000000000000000000000081526004016115b390611a01565b60405180910390fd5b6115c78383836115d1565b505050565b505050565b505050565b6000813590506115e58161202e565b92915050565b6000813590506115fa81612045565b92915050565b60006020828403121561161257600080fd5b6000611620848285016115d6565b91505092915050565b6000806040838503121561163c57600080fd5b600061164a858286016115d6565b925050602061165b858286016115d6565b9150509250929050565b60008060006060848603121561167a57600080fd5b6000611688868287016115d6565b9350506020611699868287016115d6565b92505060406116aa868287016115eb565b9150509250925092565b600080604083850312156116c757600080fd5b60006116d5858286016115d6565b92505060206116e6858286016115eb565b9150509250929050565b6116f981611bba565b82525050565b61170881611bcc565b82525050565b600061171982611b17565b6117238185611b22565b9350611733818560208601611c0f565b61173c81611d01565b840191505092915050565b6000611754602383611b22565b915061175f82611d12565b604082019050919050565b6000611777601483611b22565b915061178282611d61565b602082019050919050565b600061179a602683611b22565b91506117a582611d8a565b604082019050919050565b60006117bd602283611b22565b91506117c882611dd9565b604082019050919050565b60006117e0602683611b22565b91506117eb82611e28565b604082019050919050565b6000611803601083611b22565b915061180e82611e77565b602082019050919050565b6000611826602883611b22565b915061183182611ea0565b604082019050919050565b6000611849602083611b22565b915061185482611eef565b602082019050919050565b600061186c602583611b22565b915061187782611f18565b604082019050919050565b600061188f602483611b22565b915061189a82611f67565b604082019050919050565b60006118b2602583611b22565b91506118bd82611fb6565b604082019050919050565b60006118d5601f83611b22565b91506118e082612005565b602082019050919050565b6118f481611bf8565b82525050565b61190381611c02565b82525050565b600060208201905061191e60008301846116f0565b92915050565b600060208201905061193960008301846116ff565b92915050565b60006020820190508181036000830152611959818461170e565b905092915050565b6000602082019050818103600083015261197a81611747565b9050919050565b6000602082019050818103600083015261199a8161176a565b9050919050565b600060208201905081810360008301526119ba8161178d565b9050919050565b600060208201905081810360008301526119da816117b0565b9050919050565b600060208201905081810360008301526119fa816117d3565b9050919050565b60006020820190508181036000830152611a1a816117f6565b9050919050565b60006020820190508181036000830152611a3a81611819565b9050919050565b60006020820190508181036000830152611a5a8161183c565b9050919050565b60006020820190508181036000830152611a7a8161185f565b9050919050565b60006020820190508181036000830152611a9a81611882565b9050919050565b60006020820190508181036000830152611aba816118a5565b9050919050565b60006020820190508181036000830152611ada816118c8565b9050919050565b6000602082019050611af660008301846118eb565b92915050565b6000602082019050611b1160008301846118fa565b92915050565b600081519050919050565b600082825260208201905092915050565b6000611b3e82611bf8565b9150611b4983611bf8565b9250827fffffffffffffffffffffffffffffffffffffffffffffffffffffffffffffffff03821115611b7e57611b7d611c74565b5b828201905092915050565b6000611b9482611bf8565b9150611b9f83611bf8565b925082611baf57611bae611ca3565b5b828204905092915050565b6000611bc582611bd8565b9050919050565b60008115159050919050565b600073ffffffffffffffffffffffffffffffffffffffff82169050919050565b6000819050919050565b600060ff82169050919050565b60005b83811015611c2d578082015181840152602081019050611c12565b83811115611c3c576000848401525b50505050565b60006002820490506001821680611c5a57607f821691505b60208210811415611c6e57611c6d611cd2565b5b50919050565b7f4e487b7100000000000000000000000000000000000000000000000000000000600052601160045260246000fd5b7f4e487b7100000000000000000000000000000000000000000000000000000000600052601260045260246000fd5b7f4e487b7100000000000000000000000000000000000000000000000000000000600052602260045260246000fd5b6000601f19601f8301169050919050565b7f45524332303a207472616e7366657220746f20746865207a65726f206164647260008201527f6573730000000000000000000000000000000000000000000000000000000000602082015250565b7f5061757361626c653a206e6f7420706175736564000000000000000000000000600082015250565b7f4f776e61626c653a206e6577206f776e657220697320746865207a65726f206160008201527f6464726573730000000000000000000000000000000000000000000000000000602082015250565b7f45524332303a20617070726f766520746f20746865207a65726f20616464726560008201527f7373000000000000000000000000000000000000000000000000000000000000602082015250565b7f45524332303a207472616e7366657220616d6f756e742065786365656473206260008201527f616c616e63650000000000000000000000000000000000000000000000000000602082015250565b7f5061757361626c653a2070617573656400000000000000000000000000000000600082015250565b7f45524332303a207472616e7366657220616d6f756e742065786365656473206160008201527f6c6c6f77616e6365000000000000000000000000000000000000000000000000602082015250565b7f4f776e61626c653a2063616c6c6572206973206e6f7420746865206f776e6572600082015250565b7f45524332303a207472616e736665722066726f6d20746865207a65726f20616460008201527f6472657373000000000000000000000000000000000000000000000000000000602082015250565b7f45524332303a20617070726f76652066726f6d20746865207a65726f2061646460008201527f7265737300000000000000000000000000000000000000000000000000000000602082015250565b7f45524332303a2064656372656173656420616c6c6f77616e63652062656c6f7760008201527f207a65726f000000000000000000000000000000000000000000000000000000602082015250565b7f45524332303a206d696e7420746f20746865207a65726f206164647265737300600082015250565b61203781611bba565b811461204257600080fd5b50565b61204e81611bf8565b811461205957600080fd5b5056fea26469706673582212205eef7051e59fd648fe98ad9879998be149a724e0da18ddbd9e38e559ad3689e564736f6c63430008040033",
  "linkReferences": {},
  "deployedLinkReferences": {}
}